:100000000C942A000C9447000C9447000C94470071
:100010000C9447000C9447000C9447000C94470044
:100020000C9447000C9447000C9447000C94470034
:100030000C9447000C9447000C9447000C94470024
:100040000C9447000C9447000C9447000C94470014
:100050000C94470011241FBECFE5D4E0DEBFCDBF16
:1000600010E0A0E6B0E0E8EDF0E002C005900D92EF
:10007000A036B107D9F710E0A0E6B0E001C01D92AC
:10008000A036B107E1F70E9449000C946A000C9475
:1000900000001ABA8FEF87BB45E036E029E09AE00E
:1000A00089B38F70823009F448BB89B38F70843074
:1000B00009F438BB89B38F70863009F428BB89B343
:1000C0008F70883009F498BB89B38F70853041F701
:0800D00018BAE6CFF894FFCF47
:00000001FF
